{
  "_format": "hh-sol-artifact-1",
  "contractName": "Counter",
  "sourceName": "contracts/Counter.sol",
  "abi": [
    {
      "anonymous": false,
      "inputs": [
        {
          "indexed": false,
          "internalType": "uint32",
          "name": "counter",
          "type": "uint32"
        }
      ],
      "name": "CounterIncreased",
      "type": "event"
    },
    {
      "inputs": [],
      "name": "getCount",
      "outputs": [
        {
          "internalType": "uint32",
          "name": "",
          "type": "uint32"
        }
      ],
      "stateMutability": "view",
      "type": "function"
    },
    {
      "inputs": [],
      "name": "increment",
      "outputs": [],
      "stateMutability": "nonpayable",
      "type": "function"
    }
  ],
  "bytecode": "0x608060405234801561001057600080fd5b506101d1806100206000396000f3fe608060405234801561001057600080fd5b50600436106100365760003560e01c8063a87d942c1461003b578063d09de08a14610059575b600080fd5b610043610063565b6040516100509190610124565b60405180910390f35b61006161007c565b005b60008060009054906101000a900463ffffffff16905090565b60008081819054906101000a900463ffffffff168092919061009d9061016e565b91906101000a81548163ffffffff021916908363ffffffff160217905550507fd1de5bac8247004de25b638181f7e6f610f94dd3b9284c72a25f3136674e9aed60008054906101000a900463ffffffff166040516100fb9190610124565b60405180910390a1565b600063ffffffff82169050919050565b61011e81610105565b82525050565b60006020820190506101396000830184610115565b92915050565b7f4e487b7100000000000000000000000000000000000000000000000000000000600052601160045260246000fd5b600061017982610105565b915063ffffffff8214156101905761018f61013f565b5b60018201905091905056fea2646970667358221220d9c2896195bd82fd8e08a56ab7025b4fe71e14cd68fc6e8f5aa938a867f0f11764736f6c63430008090033",
  "linkReferences": {},
  "deployedLinkReferences": {}
}